:10000000F6C005C104C103C102C101C100C1FFC0E6
:10001000FEC0FDC0FCC0FBC0FAC0F9C0F8C0F7C00C
:10002000F6C0F5C0F4C03D202B202D202A202F2023
:1000300025203D3D203E2021209C207C2026203C68
:100040003C203E3E20494620454E442057484C2007
:1000500042524B205245542052414E442053545258
:1000600020494E54204C454E205452554E43204773
:10007000455420534554205052494E5420494E5027
:1000800055542000A9009E00C200BE00B700B00079
:10009000CE00C700DA00D500EB00E400DF005945D0
:1000A000532044454C4554450043414E43454C0084
:1000B00052454E414D450044454C4554450052552E
:1000C0004E00454449540053454C45435400435267
:1000D000454154450051554954005341564500454A
:1000E0004449540044454C45544500494E534552FB
:1000F00054004E4F2046494C45530057454C434F02
:100100004D450052454E414D45440044454C4554F3
:1001100045440041524520594F5520535552453FC3
:1001200000435245415445440046494C45204E4108
:100130004D453F00534156454400535041434520EF
:1001400044454C455445004142434445464748498F
:100150004A4B4C4D4E4F5051525354555657585987
:100160005A303132333435363738392C2E3F213B33
:100170003A272228293D3C3E2B2D2A2F259C7C26E0
:10018000003914556D7F380C0106CE73210FF51917
:10019000F96AFE2C6924D2073A7BEC1347322E3BD6
:1001A000DF2AC35ABC3FB127E902876A7C66D31DA8
:1001B000E126043B4B771D3F453F5451E754056012
:1001C000C3380054BD55946ABC6645311869561F42
:1001D0004A78D77B32641408E0669D68883F0C4EED
:1001E000BF3B067C330CD17EF60F6C39EA7C1124C0
:1001F0001FBECFE5D2E0DEBFCDBF20E0A0E6B0E07D
:1002000001C01D92A238B207E1F700DEEFCEF8CEB2
:1002100098E020E880E0C2983DE03A95F1F70000D0
:10022000C29A3DE03A95F1F70000B199822B2695EC
:10023000915089F7C2989DE09A95F1F700000895D2
:1002400098E020E8C298322F382311F0C09A01C0FC
:10025000C0983DE03A95F1F70000C29A3DE03A952A
:10026000F1F700002695915069F7C2988DE08A95C4
:10027000F1F700000895D998DA98E2DFDA9A8FE969
:100280009FE00197F1F700C000000895D99ADA982D
:10029000D7DFDA9A85E88A95F1F700000895CF92C2
:1002A000DF92EF92FF920F931F93CF93DF9300D0D3
:1002B000CDB7DEB78C017B01C39883E04A835983B5
:1002C000BFDF5981852FBCDF4A81842FB9DF6801E8
:1002D00004C09EDFF60181936F01C601801B910B64
:1002E0008E159F05B4F3C39AFAE1FA95F1F700C0B1
:1002F0000F900F90DF91CF911F910F91FF90EF9092
:10030000DF90CF900895CF93DF931F92CDB7DEB7E4
:10031000AC0161E070E0CE010196C1DF89810F90F0
:10032000DF91CF910895CF93DF93EC01229707C01F
:10033000CE01E9DF8A3011F4219605C02197D7FF5D
:10034000F7CFC0E0D0E0CE01DF91CF9108950F93B9
:100350001F93CF93DF938C01C82FD12FCE01D3DF12
:100360008A3011F4219605C0882311F02196F6CF2A
:10037000E801CE01DF91CF911F910F910895CF93A6
:10038000DF9300D0CDB7DEB7AC0162E070E0CE0104
:10039000019685DF89819A810F900F90DF91CF912F
:1003A0000895E82FF0E0EE0FFF1FE259FF4F808124
:1003B0009181E5CFCF93DF93C0916C00D0916D0018
:1003C000CE010696DCDF9E01280F391F245031092B
:1003D000C901DF91CF910895CF92DF92EF92FF9202
:1003E0000F931F93CF93DF931F92CDB7DEB7D82E15
:1003F0008B017A01C39882E0998322DF9981892F4A
:100400001FDF8D2D1DDF680104C0F60181916F0192
:1004100017DFC601801B910B8E159F05B4F3C39A9D
:10042000FAE1FA95F1F700C00F90DF91CF911F919B
:100430000F91FF90EF90DF90CF900895CF93DF93CF
:1004400000D0CDB7DEB77A83698342E050E0BE01C9
:100450006F5F7F4FC1DF0F900F90DF91CF910895B5
:10046000CF93DF93C0E0D0E080916C0090916D005D
:10047000089660E070E08C0F9D1FE0DF2296C43389
:10048000D10591F7DF91CF910895EF92FF920F93ED
:100490001F93CF93DF937C01C0E0D0E000E01DE725
:1004A00007C0C8018C1B9D0B6ADF892B71F0289651
:1004B0002091600030916100C217D30794F3285F48
:1004C0003F4F309361002093600000E01DE70C1B5C
:1004D0001D0BB701C801B2DF60E070E082E09DE76C
:1004E0008C1B9D0BABDF60E070E084E09DE78C1B14
:1004F0009D0BA4DF60E070E086E09DE78C1B9D0B08
:100500009DDFC801DF91CF911F910F91FF90EF9078
:100510000895CF93DF93EC0180916C0090916D0072
:1005200006962DDFBC016C0F7D1F80916C009091B1
:100530006D000696DF91CF9181CFCF92DF92EF923F
:10054000FF920F931F93CF93DF9300D01F92CDB7ED
:10055000DEB78C017B01C49883E02B833A83498307
:100560006FDE4981842F6CDE3A81832F69DE2B8117
:10057000822F66DE680104C04BDEF60181936F01B5
:10058000C601801B910B8E159F05B4F3C49AFAE146
:10059000FA95F1F700C00F900F900F90DF91CF9177
:1005A0001F910F91FF90EF90DF90CF900895CF9320
:1005B000DF931F92CDB7DEB79B01AC0161E070E025
:1005C000CE010196BADF89810F90DF91CF91089516
:1005D0008F929F92AF92BF92CF92DF92EF92FF9253
:1005E0000F931F93CF93DF93CDB7DEB7C456D109D6
:1005F0000FB6F894DEBF0FBECDBFC82ED12CE12CB4
:10060000F12C2CE0CC0CDD1CEE1CFF1C2A95D1F744
:1006100081E1C80ED11CE11CF11C00E010E034E6C1
:10062000A32EB12C41EF842E4FE0942E0BC00E3838
:100630008FE0180724F05401A01AB10A03C094E611
:10064000A92EB12C9801442737FD4095542F2C0D2D
:100650003D1D4E1D5F1DB501CE0101966EDFA5014A
:10066000BE016F5F7F4FC801B7DE0A0D1B1D013F42
:100670008FE01807E4F2CC59DF4F0FB6F894DEBFD5
:100680000FBECDBFDF91CF911F910F91FF90EF90E3
:10069000DF90CF90BF90AF909F908F9008954F9232
:1006A0005F926F927F928F929F92AF92BF92CF9202
:1006B000DF92EF92FF920F931F93CF93DF936B0123
:1006C0007C014A01590100E010E03FC0412C512C4F
:1006D000320153944C0C5D1C6E1C7F1C4424E201BF
:1006E000CC19DD09C501801B910B8C179D070CF4FB
:1006F000EC01C49886E0A4DDC49A8FEC97E00197E2
:10070000F1F700C00000C49882E09ADD8E2D98DDDC
:100710008D2D96DD8C2D94DD740104C0F70181913F
:100720007F018EDDC701881999098C179D07B4F3E5
:10073000C49A8FE19EE40197F1F700C000008C0E8F
:100740009D1E0C0F1D1F730162010A151B050CF481
:10075000BDCFDF91CF911F910F91FF90EF90DF9070
:10076000CF90BF90AF909F908F907F906F905F9051
:100770004F9008958F929F92AF92BF92CF92DF9247
:10078000EF92FF920F931F93CF93DF93CDB7DEB716
:10079000C456D1090FB6F894DEBF0FBECDBFC82E28
:1007A000D12CE12CF12C7CE0CC0CDD1CEE1CFF1CD0
:1007B0007A95D1F781E1C80ED11CE11CF11C00E053
:1007C00010E0E4E6AE2EB12CF1EF8F2EFFE09F2E6D
:1007D0000BC00E388FE0180724F05401A01AB10A9C
:1007E00003C064E6A62EB12CA801B501CE01019686
:1007F00056DDB801882777FD8095982F6C0D7D1DFB
:100800008E1D9F1D9501AE014F5F5F4F48DF0A0DA2
:100810001B1D013F8FE01807E4F2CC59DF4F0FB6E4
:10082000F894DEBF0FBECDBFDF91CF911F910F9126
:10083000FF90EF90DF90CF90BF90AF909F908F9000
:100840000895EFECF7E03197F1F700C00000CB9985
:1008500080E00895CF93D79A80E8F3DFC82FD79828
:10086000D69A80E4EEDFC82BD698D59A80E2E9DFED
:10087000C82BD598BE9A80E1E4DFC82BBE98BD9AFC
:1008800088E0DFDFC82BBD98D49A84E0DADFD49803
:100890008C2BCF910895CF93DDDFC82F8823E1F310
:1008A000D9DF8111FDCF8C2FCF9108950F931F9326
:1008B000CF93DF93EC0181E0DEDC80E8DCDC10E04C
:1008C000FE01E10FF11D0491002341F0103111F4FC
:1008D00080ECD1DC802FDADC1F5FF2CFDF91CF918B
:1008E0001F910F910895EF92FF920F931F93CF9353
:1008F000DF931F92CDB7DEB77C0110E0062F0150C9
:10090000E12FF0E0EE0FFF1FEE0DFF1D259134915A
:10091000C9016983CBDFBFDF982F907A6981992362
:1009200029F0112311F0115001C0102F982F90754C
:1009300021F01F5F161708F010E083FD03C082FF4F
:10094000DFCF1FEF812F0F90DF91CF911F910F917C
:10095000FF90EF9008950F931F93CF93DF938B0138
:10096000EC01C80104960BDD049609DD8993882308
:1009700029F0C801069603DD8C01F3CFDF91CF91FA
:100980001F910F910895EF92FF920F931F93CF93B2
:10099000DF93EC017B018C010E5F1F4FC801EFDC80
:1009A000BC016E0D7F1D16161706C4F0CE01E7DCE4
:1009B000029781F4CE010696E2DC8C0160E070E0E3
:1009C000CE0139D060E070E0CE0138DDE80120973B
:1009D00089F70CC060E070E0CE0101C0C801DF9172
:1009E000CF911F910F91FF90EF9028CDDF91CF9184
:1009F0001F910F91FF90EF9008950F931F93CF9346
:100A0000DF938C01EB01BBDC009719F06FEF7FEFF8
:100A1000BADFBE01C80112DD209741F061E070E04D
:100A2000CE01DF91CF911F910F91ADCFDF91CF918B
:100A30001F910F9108950F931F93CF93DF9300D0D1
:100A4000CDB7DEB78C010C5F1F4F69837A8397DCCB
:100A500069817A81029741F4C8010F900F90DF916C
:100A6000CF911F910F91C9CFC8010F900F90DF91C7
:100A7000CF911F910F91E2CC0F931F93CF93DF93F0
:100A8000EC0181E090E001DD8C01BE01D4DFC80102
:100A9000DF91CF911F910F9108950F931F93CF93E3
:100AA000DF93EC0182E090E0F0DC8C01BE01C3DF5B
:100AB000C801DF91CF911F910F910895CF92DF92DE
:100AC000EF92FF920F931F93CF93DF9300D0CDB798
:100AD000DEB77C016B0186179707ECF400E010E0AD
:100AE000C8018E0D9F1D0FDC882319F00F5F1F4F6B
:100AF000F7CFC8018E0D9F1D06DC8A8341E050E0D0
:100B0000BE016E5F7F4FC8018C0D9D1D65DC0150DD
:100B1000110978F717C068177907A4F48C01C81A6F
:100B2000D90AC801F0DBF82E898341E050E0BE010C
:100B30006F5F7F4FC601800F911F4EDC0F5F1F4F0D
:100B4000F110EFCF0F900F90DF91CF911F910F9188
:100B5000FF90EF90DF90CF9008953F924F925F9279
:100B60006F927F928F929F92AF92BF92CF92DF92BD
:100B7000EF92FF920F931F93CF93DF937C0100E0DE
:100B800010E0C0E0D0E0512C81E075DB80E873DB41
:100B9000F7015F01AE18BF0881918111FACFC8300B
:100BA000D1052CF03E0188E0681A710802C0612C62
:100BB000712CC12CD12C412C312C4701860C971C57
:100BC000C601860D971D8C179D0719F48FE55EDB16
:100BD00043948FE0841568F0F401EC0DFD1D8081D5
:100BE000882329F0311003C051DB439402C0332421
:100BF00033948FEFC81AD80A80E1C816D10401F7E0
:100C0000511019C048DE87FD219786FD219685FD8C
:100C1000289784FD2896D7FD04C0AC16BD0624F0A5
:100C200004C0C0E0D0E001C0E50183FB552450F8CA
:100C300082FFAACF7EC080EC1EDB80E1D82E80E24E
:100C400025DBDA94E1F780EC16DB02301105CCF4F9
:100C5000C80166E070E03BD9C12CD12CBAE38B2EE1
:100C6000B1E09B2E880E991EF401EC0DFD1D8491C0
:100C70000DDB8FEFC81AD80A86E0C816D104A1F799
:100C800005C0F801EB5BFE4F849100DB04DE87FFBB
:100C900002C00150110986FF02C00F5F1F4F85FF80
:100CA00002C00850110984FF02C0085F1F4F17FFE0
:100CB00002C0055C1F4F0B33110510F00B531109D7
:100CC00083FF34C001301105A1F4209761F1F701D1
:100CD000EC0FFD1F04C08191DF0112978C93CF01AF
:100CE0008E199F09A816B906B4F7219701E010E004
:100CF0001AC00115110529F0F801EB5BFE4FE491D4
:100D00000AC0E0E208C0AA0DBB1D8C9111968C931D
:100D100081E0A81AB108D701AC16BD06A4F7AC0F44
:100D2000BD1FEC932196552453942ECF82FF83CF81
:100D30002ACFDF91CF911F910F91FF90EF90DF901D
:100D4000CF90BF90AF909F908F907F906F905F906B
:100D50004F903F900895CF92DF92EF92FF92CF9302
:100D6000DF93CDB7DEB7E2970FB6F894DEBF0FBEC4
:100D7000CDBF89E291E09ADD8EDD82FD1EC0198231
:100D8000CE010196EADE1A8AC12CD12C7601C70168
:100D9000B6010DDC8F3F29F080E1D80EE11CF11C7B
:100DA000F6CF22E130E0AE014F5F5F4FC701B601E1
:100DB00076DC81E291E07ADD6EDDE2960FB6F894A2
:100DC000DEBF0FBECDBFDF91CF91FF90EF90DF90E0
:100DD000CF900895BF92CF92DF92EF92FF920F9340
:100DE0001F93CF93DF937C0100E010E0C0E0D0E0E0
:100DF000F701B1907F018B2D90E03EDE4EDE6C015D
:100E00000115110529F0BC01C8010696F6DD02C0E6
:100E1000C82FDD2D8601B110EBCFCE01DF91CF9130
:100E20001F910F91FF90EF90DF90CF90BF900895AA
:100E3000B8DA0496A4CA0F931F93CF93DF93EC0103
:100E400081E019DA80E817DA10E0FE01E10FF11D08
:100E50000081002341F0103111F480EC0CDA802F76
:100E600015DA1F5FF2CFDF91CF911F910F91089597
:100E70002F923F924F925F926F927F928F929F92AA
:100E8000AF92BF92CF92DF92EF92FF920F931F9398
:100E9000CF93DF93CDB7DEB768970FB6F894DEBF78
:100EA0000FBECDBF8C01362E4C01AA2497FCA09416
:100EB000BA2C609168007091690080916A009091ED
:100EC0006B00680D791D8A1D9B1D71DB282F8053D7
:100ED0008A3018F02D3209F045C0409068005090DB
:100EE000690060906A0070906B00C12CD12C760173
:100EF000480C591C6A1C7B1C5801AC0CBD1CC3015E
:100F0000B2016C0D7D1D8E1D9F1D288F50DB982F0B
:100F100090534C2D50E0288DE1E0F0E0EC0FFD1FE8
:100F2000E40FF51F9A30B8F08D32A9F01082CE018F
:100F30000196288F05D8A0DD032D10E0000F111FAA
:100F4000BC01C8015ADDF801E259FF4F118300834B
:100F50008501288D07C080838FEFC81AD80AE80A58
:100F6000F80ACACF822F81548A31B8F40F5F1F4F1D
:100F7000E32DF0E0EE0FFF1FE259FF4F80916C0070
:100F800090916D00089630E021543109220F331FF3
:100F9000820F931F91838083AFC0283209F04FC026
:100FA0000F5F1F4FA12CB12CE12CF12CC32CD12CA5
:100FB000CC0CDD1CEEE6F0E0CE0EDF1E02C07401AC
:100FC0005401B801882777FD8095982F40906800DC
:100FD0005090690060906A0070906B00640D751D00
:100FE000861D971DE4DA8932B1F0803211F40F5F6B
:100FF0001F4F632DC8013CDF8C01F6018081918178
:10100000BED94BDD4C01A114B104C9F2BC01C5012C
:101010000696F3DCD5CFE114F10421F480E090E0F2
:101020003CDD7C01C32CD12CCC0CDD1CB701C601EE
:10103000E4DCF601E259FF4FD182C0825DC022326A
:1010400009F05AC02801FFEF4F1A5F0AC12CD12CBA
:101050007601A12CB12C812C912C662457FC609434
:10106000762C0E5F1F4FC701B601640D751D861DDE
:10107000971D209168003091690040916A0050915D
:101080006B00620F731F841F951F91DA282E980141
:101090002C0D3D1D2D8B3E8B82E2281201C0212C90
:1010A000822D90E0E9DCF9DC382F292FA114B1045E
:1010B00051F0682F792FC5010696288F3F8B9DDC54
:1010C000288D3F8902C0882E992E9FEFC91AD90A10
:1010D000E90AF90AA32EB22E2110C5CF032D10E084
:1010E000000F111FB401C80188DCF801E259FF4F5D
:1010F000118300830D891E89C80168960FB6F89484
:10110000DEBF0FBECDBFDF91CF911F910F91FF903A
:10111000EF90DF90CF90BF90AF909F908F907F9097
:101120006F905F904F903F902F9008958F929F9275
:10113000AF92BF92CF92DF92EF92FF920F931F93E5
:10114000CF93DF93CDB7DEB7DA950FB6F894DEBF55
:101150000FBECDBFA82E00E010E0EE24E394F12CEA
:10116000EC0EFD1EAAE0BA2E81E085D880E883D877
:10117000C12CD12CC601800F911FC5D8982E8AE0B2
:10118000981205C088DB982E87FF15C011C09920E2
:10119000C9F380E1C81202C080EC6DD8892D76D8E1
:1011A0008FEFC81AD80A80E2C816D10419F7EACF1F
:1011B000C801B9D88C0196FE03C0C801C8D88C01FB
:1011C00095FE0AC0E8E0CE2ED12CC801ACD88C0127
:1011D00081E0C81AD108C9F794FE0AC078E0C72E8A
:1011E000D12CC801B4D88C0181E0C81AD108C9F744
:1011F00093FE5AC063E088E990E075DB81111CC062
:101200001982C701AADCF7016F01CE18DF088191AE
:101210008111FACFF701EC0DF11DB082C394D12CEE
:10122000B8016C0D7D1DC80149DCA601B701C801DC
:10123000D3D8C8018CD808C0813041F4C80187D800
:10124000B8013CDCC8016FD88C012EC0823061F53A
:10125000812CC82CD12CC8018C0D9D1D54D8F701B0
:10126000EC0DFD1D882329F083948A3011F08083D2
:10127000F0CF1082C70171DCF7016F01CE18DF08D3
:1012800081918111FACFF701EC0DF11DB082C39469
:10129000D12CB8016C0D7D1DC801880D911D0EDC8F
:1012A000A601B701C80198D892FE5ECF62E084E93A
:1012B00090E019DB811107C08A2D5CDA84E391E0AC
:1012C000F5DAE9DA51CF813009F04ECFD3950FB678
:1012D000F894DEBF0FBECDBFDF91CF911F910F916C
:1012E000FF90EF90DF90CF90BF90AF909F908F9046
:1012F00008953F924F925F926F927F928F929F924A
:10130000AF92BF92CF92DF92EF92FF920F931F9313
:10131000CF93DF93CDB7DEB7CF59D1090FB6F8948D
:10132000DEBF0FBECDBFE12CF12C60E070E0C70145
:1013300085D822E0E20EF11C84E1E816F104A9F759
:101340006E0195E6C90ED11C412C512C320172015F
:10135000609168007091690080916A0090916B00C3
:10136000640D751D861D971D22D9882369F0803272
:1013700079F0EFEF4E1A5E0A6E0A7E0A8A3051F05B
:10138000F60181936F01E3CFC2013324339404C08B
:10139000C20101C0C701312CBE016B597F4FFB0157
:1013A000E80FF91F108240E050E020E01CC0D12C73
:1013B00030E0FA01EA5DFF4FE4914F5F5F4F31117A
:1013C0000EC0DB01AD0DB11DFC91D394E03221F4D0
:1013D000FF2369F02F5F07C0EF1303C0EACFE032AD
:1013E000C9F331E0E6CF4E35510508F32FEF3091C8
:1013F0006700332309F486C0C12CD12C76012C015F
:10140000662457FC6094762C8E010B591F4F080FF1
:10141000191F46015701840C951CA61CB71C60912E
:1014200068007091690080916A0090916B00680D6E
:10143000791D8A1D9B1DC156DF4F2883CF59D0408F
:10144000B6D8C156DF4F2881CF59D040882371F0DC
:10145000803271F08A3061F0F801EC0DFD1D80835F
:10146000FFEFCF1ADF0AEF0AFF0AD3CF33243394FA
:10147000C0906800D0906900E0906A00F0906B0026
:10148000C80CD91CEA1CFB1C8FEFC81AD80AE80A42
:10149000F80A2E3011F02031B1F484E090E039D810
:1014A00089D74EEF5FEF6FEF7FEFC556DF4F488371
:1014B00059836A837B83CB59D04044E050E0BE011E
:1014C00065567F4F39C12F3009F0F6C273D7AC0192
:1014D00064E070E0CE018D579F4FE1D6CD57DF4FCE
:1014E00088809980AA80BB80C358D0408CEF9FEF42
:1014F00010D88B208A208920809409F0DDC21092B8
:101500006700DAC2912C2701662457FC6094762C80
:10151000609168007091690080916A0090916B0001
:10152000640D751D861D971DC156DF4F2883CF5949
:10153000D0403DD8C156DF4F2881CF59D0408032AE
:1015400061F4692DC701019693DC7C019394C15627
:10155000DF4F2881CF59D040D6CFC0906800D090BF
:101560006900E0906A00F0906B00C40CD51CE61C8A
:10157000F71CEFEFCE1ADE0AEE0AFE0AF1E0F915CB
:10158000B8F481E0C156DF4F2883CF59D04050DCFA
:101590008C01C156DF4F2881CF59D04082E0981688
:1015A00039F046DC5C01C156DF4F2881CF59D0406D
:1015B000211103C081E0F5D606C0213059F4C801DD
:1015C0008A0D9B1D59DABC0180916E0090916F00CD
:1015D00014DA72C2223021F4C8018A199B09F2CFB1
:1015E000233021F4C801B50172D4ECCF243029F4A2
:1015F000C801B5017ED4CB01E5CF253019F4C8016F
:10160000B5012FC1263031F481E090E00A151B05A9
:10161000C9F20EC0273031F481E090E0A016B10687
:101620008CF206C0283039F481E090E0012B51F2B1
:1016300080E090E0C7CF293021F4C80180959095D3
:10164000C1CF2A3021F4C501802B912BBBCF2B3089
:1016500021F4C50180239123B5CF2C3039F4C80182
:1016600002C0880F991FAA94E2F7ACCF2D3039F44D
:10167000C80102C095958795AA94E2F7A3CF2E30B2
:10168000E1F480E0D5DB892B19F481E080936700D9
:1016900084E090E03ED78ED64FEF5FEFBA01C95697
:1016A000DF4F488359836A837B83C759D04044E026
:1016B00050E0BE0169567F4F3FC02F30B1F47AD65B
:1016C000AC0164E070E0CE018D579F4FE8D5CD5757
:1016D000DF4F88809980AA80BB80C358D0408CEFB0
:1016E0009FEF17D7B7FE22C2E7C1203139F580E05E
:1016F0009FDB892B49F08090680090906900A09052
:101700006A00B0906B0007C081E080936700882476
:101710008A94982C540184E090E0FBD64BD6CD56A9
:10172000DF4F88829982AA82BB82C359D04044E0AD
:1017300050E0BE016D567F4F4FD6BEC1213109F03A
:1017400047C081E08093670035D68C019EEF892EDB
:1017500099249A94A92CB92CA80164E070E0CE01D8
:101760008D579F4F9CD5CD57DF4F88819981AA8196
:10177000BB81C358D0408F3FEFEF9E07AE07BE0737
:1017800081F4C157DF4F88829982AA82BB82CF58E9
:10179000D04044E050E0BE0161577F4FC8011CD6E5
:1017A00014C0B7FD12C08FEF9FEFDC01C557DF4FAC
:1017B00088839983AA83BB83CB58D04044E050E010
:1017C000BE0165577F4FC801B7CF04501109C4CF80
:1017D000223109F473C1233109F045C081E028DBCF
:1017E000BC012091640030916500220F331F3093BB
:1017F00065002093640037FF06C03F772160309377
:1018000065002093640050916300E52FF0E0EE0F37
:10181000FF1FE853FE4F8591949140916200E42FA1
:10182000F0E0EE0FFF1FE657FE4F2591349182271F
:10183000932720916400309165008227932790932D
:101840006500809364005F5F509363004F5F409337
:101850006200563210F0109263004E3310F0109276
:10186000620047D3AFCE243149F481E0E1DA4AE0A7
:1018700050E0BE016F5F7F4F80D3B2C0253151F47D
:1018800081E08FD5BC01CE01019665D8CE010196CD
:1018900057D398CE2631A9F481E083D58C01A12CB1
:1018A000B12CC80104966BD5892B49F0FFEFAF1A14
:1018B000BF0AC801069663D58C01009791F7C50150
:1018C00081CE273159F580E06CD58C0181E0B0DA0A
:1018D0005C01612C712C4C0121E0821A910811C02D
:1018E000C80104964CD5892B19F4AB2891F40DC08E
:1018F000C801069644D50097C1F3EFEF6E1A7E0A31
:101900008C016814790464F3F0CF60E070E0C801E2
:1019100092D860E070E0C80106965ACE2831D1F422
:1019200081E03FD58C0182E083DA4C01A12CB12CFF
:101930000DC0C801069623D5009721F4C80104966E
:101940001ED541CEFFEFAF1ABF0A8C01A814B9040F
:1019500084F3F4CF293161F580E023D58C0181E057
:1019600067DA5C01812C912C09C0C801069607D565
:101970000097A9F02FEF821A920A8C018A149B0417
:10198000A4F30DC080E090E077D887D83C01BC017B
:10199000C801069632D88FEF881A980A83018A14F4
:1019A0009B0484F382E0FDD4BC01C80144D884C008
:1019B0002A3181F480E0F5D4BC01CE010196CBD769
:1019C000CE01019638DA67D782FF76C081E0809336
:1019D000660072C02B3141F41982CE010196BDD848
:1019E000CE010196F7D9EFCD2F3F09F065C0412C0C
:1019F000512C3201A301920161E170E0CE01019608
:101A00009CD589818F3F09F44CC0DE011196FE01FF
:101A1000EB59FF4F8D919191891343C08111FACFFA
:101A200000916C0010916D00C8010696A8D4080FB3
:101A3000191FC957DF4FC882D982EA82FB82C75873
:101A4000D04044E050E0BE0169577F4FC801C4D484
:101A500060916C0070916D00C8010496EFD46CE346
:101A600070E0C8010696EAD410936D0000936C00F4
:101A7000F7D4085F1F4FF12C08C08F2D92D4BC0102
:101A8000C801BBD7F3940E5F1F4FF910F6CFB1E139
:101A9000CB2ED12CE12CF12CC40CD51CE61CF71C50
:101AA0000BC090E1590E611C711C41145104E2E01D
:101AB0006E06710409F09ECF3320D1F180916C0045
:101AC00090916D00459724F481E08093660030C0CA
:101AD00000E010E080916C0090916D00089660E04D
:101AE00070E0800F911F89D70E5F1F4F04331105DF
:101AF00089F740916C0050916D0064E070E0CE0178
:101B00008D579F4FCCD3CD57DF4FC880D980EA8007
:101B1000FB80C358D04080916C0090916D0004967A
:101B20002ED490936D0080936C0002C07501640107
:101B3000C0926800D0926900E0926A00F0926B0057
:101B400000E010E060E070E0C80157D70E5F1F4F63
:101B500004311105B9F7C156DF4F0FB6F894DEBF57
:101B60000FBECDBFDF91CF911F910F91FF90EF90EE
:101B7000DF90CF90BF90AF909F908F907F906F90AD
:101B80005F904F903F9008957F928F929F92AF9277
:101B9000BF92CF92DF92EF92FF920F931F93CF935A
:101BA000DF93CDB7DEB7E3970FB6F894DEBF0FBE75
:101BB000CDBF782EC82ED12CE12CF12C2CE0CC0CF2
:101BC000DD1CEE1CFF1C2A95D1F704E110E031E189
:101BD000832E912CA12CB12C8C0C9D1CAE1CBF1CF7
:101BE00064E088E890E07FD6811105C0872DF0D4AD
:101BF000872D9CDAF5CF813041F510936D0000936D
:101C00006C006CE370E08AE190E018D429D4109263
:101C100061001092600010926700809268009092BC
:101C20006900A0926A00B0926B001092660008C032
:101C300060DB10D682FF04C00DD68111FDCFD0CF5E
:101C4000809166008823A1F3CBCF8230D1F483E169
:101C500091E02CD620D662E084E890E044D6813032
:101C600009F0BECF8FEF8BAB21E030E0AE014D5CD1
:101C70005F4FC701B60113D58BE091E017D60BD6A5
:101C80001CC08330B9F489E291E010D604D682FDFD
:101C900014C01982CE01019660D721E130E0AE0177
:101CA0004F5F5F4FC701B601FAD483E091E0FED5E4
:101CB000F2D596CF8F3F09F093CFE3960FB6F89405
:101CC000DEBF0FBECDBFDF91CF911F910F91FF906F
:101CD000EF90DF90CF90BF90AF909F908F907F90CC
:101CE00008959F92AF92BF92CF92DF92EF92FF92B0
:101CF0000F931F93CF93DF93CDB7DEB761970FB6E6
:101D0000F894DEBF0FBECDBF00E010E0B12CC12CB7
:101D1000D12C7601C701B6014AD48F3F09F0B394A4
:101D200080E1D80EE11CF11CC114D10482E0E80668
:101D3000F10481F7B11005C082EF90E0B7D5ABD5C3
:101D400053C0902EA12CC12CD12C7601C701B60115
:101D50002ED48F3F19F0992071F09A9480E1D80E1B
:101D6000E11CF11CA394C114D10482E0E806F10443
:101D700069F7AA24AA942A2D30E040E050E06CE0F4
:101D8000220F331F441F551F6A95D1F761E170E0A0
:101D9000CE010196D2D3CE0101964DD87CD5F82E36
:101DA00087FF02C001501109F6FE02C00F5F1F4FEE
:101DB000F5FE02C008501109F4FE02C0085F1F4F73
:101DC00017FF02C000E010E02B2D30E002171307D0
:101DD0001CF0890101501109F3FE04C08A2DD4DEE4
:101DE00000E010E0F2FE92CF61960FB6F894DEBFED
:101DF0000FBECDBFDF91CF911F910F91FF90EF905C
:101E0000DF90CF90BF90AF909F900895C298C39AF3
:101E1000C49ADA9AD89ADF98DE98DD98C698C59861
:101E2000DC98B89ABA9ABB9ABC9AD29AD19AD09AAC
:101E3000D89825E82A95F1F70000D89A8FEF90E717
:101E4000E2E081509040E040E1F700C00000C1E8CE
:101E5000D1E0FE0184910FD22196F1E0CA38DF076C
:101E6000C1F7C39881E0ECD181E4EAD1C39AC49868
:101E700081E0E6D180E0E4D1C49A8FEC97E001974D
:101E8000F1F700C000008BEF90E010D509C0809101
:101E900064009091650001969093650080936400C2
:101EA000D9D48823A1F304C095E89A95F1F70000EE
:101EB000D1D48111F9CF62E080E990E014D581118D
:101EC00002C049D7F8CF8130B1F70BDFF4CF5527E7
:101ED000002480FF02C0060E571F660F771F611592
:101EE000710521F096958795009799F7952F802D8C
:101EF000089597FB072E16F4009406D077FD08D0BE
:101F00000BD007FC05D03EF4909581959F4F089526
:101F1000709561957F4F0895AA1BBB1B51E107C0C7
:101F2000AA1FBB1FA617B70710F0A61BB70B881F69
:101F3000991F5A95A9F780959095BC01CD010895F8
:101F4000FC0188279927E89421912032E9F3293070
:101F500010F02E30C8F32B3239F02D3231F4689462
:101F600003C02AD0820F911D219120532A30C8F33B
:101F70001EF4909581959F4F0895FB019F01E89471
:101F80004230BCF04532ACF44A3029F497FB1EF4E1
:101F9000909581959F4F642F7727BEDF805D8A33B0
:101FA0000CF0895D8193CB010097A9F716F45DE2EF
:101FB00051931082C9010AC0BC01880F991F880F74
:101FC000991F860F971F880F991F0895DC01FC0148
:101FD000672F71917723E1F7329704C07C916D935D
:101FE00070836291AE17BF07C8F30895F894FFCFCE
:00000001FF
